:10000000002000207DB70308AD480308C14803085D
:10001000D5480308E9480308FD480308000000002C
:10002000000000000000000000000000114903086B
:100030002549030800000000C16000083F030108D3
:10004000D9B80308DDB80308E1B80308DD58030890
:10005000E5B80308055B0308B5500308815203089F
:100060007B5303085D540308E9B80308EDB803089F
:10007000F1B80308F5B80308F9B80308FDB8030898
:10008000395503085156030801B9030805B9030897
:1000900009B903080DB9030811B90308C1570308CA
:1000A00015B9030819B903081DB9030821B90308D4
:1000B00025B9030829B903082DB9030831B9030884
:1000C00035B9030839B903083DB903083D490308A8
:1000D00041B9030845B9030849B903084DB90308F4
:1000E000315703080D5A030851B9030855B90308DD
:1000F00059B903085DB9030861B9030865B9030874
:1001000069B903086DB9030871B9030875B9030823
:1001100079B903087DB9030881B9030885B90308D3
:1001200089B903088DB9030891B9030895B9030883
:1001300099B903089DB90308A1B90308A5B9030833
:10014000A9B90308ADB90308B1B90308B5B90308E3
:10015000B9B90308BDB90308C1B90308C5B9030893
:10016000C9B90308CDB90308D1B90308D5B9030843
:10017000D9B90308DDB90308E1B90308E5B90308F3
:10018000E9B90308EDB90308BFF34F8FDFF8040A9C
:10019000016801F4E061DFF8002A11430160BFF358
:1001A0004F8FFEE738B50020ADF800000246402131
:1001B000AB2002F098F9C0208DF8000000AC0F20B1
:1001C0006070022300AA7221092002F00FFD0028AE
:1001D00001D1002032BDC1208DF8000000206070E8
:1001E000022300AA7221092002F000FD002801D19B
:1001F000002032BDC2208DF800000F206070022365
:1002000000AA7221092002F0F1FC002801D100208F
:1002100032BDC3208DF8000000206070022300AAC8
:100220007221092002F0E2FC002801D1002032BD39
:10023000C4208DF800000F206070022300AA7221F4
:10024000092002F0D3FC002801D1002032BDC520D6
:100250008DF8000000206070022300AA722109209E
:1002600002F0C4FC002801D1002032BDC6208DF868
:1002700000000F206070022300AA7221092002F002
:10028000B5FC002801D1002032BDC7208DF8000048
:1002900000206070022300AA7221092002F0A6FC4F
:1002A000002801D1002032BD81208DF80000EE2011
:1002B0006070022300AA7221092002F097FC002836
:1002C00001D1002032BDDFF8D458607868738220F5
:1002D0008DF8000006206070022300AA7221092018
:1002E00002F084FC002801D1002032BD287C0028C7
:1002F0001DD08E208DF8000045206070022300AADA
:100300007221092002F072FC002801D1002032BDC8
:100310008F208DF8000058206070022300AA7221FF
:10032000092002F063FC00281FD1002032BD8E207E
:100330008DF8000082206070022300AA722109203B
:1003400002F054FC002801D1002032BD8F208DF82E
:1003500000008C206070022300AA7221092002F0A4
:1003600045FC002801D1002032BD80208DF800001E
:1003700007206070022300AA7221092002F036FCD7
:10038000002801D1002032BDDD208DF800002020A2
:100390006070022300AA7221092002F027FC0028C5
:1003A00001D1002032BD012032BD10B582B0002045
:1003B000ADF80000044602F018FB0A2102F044FDEB
:1003C00000E0641C032C12D2DFF8D407215C8DF806
:1003D0000010201800798DF80100022300AA722174
:1003E000072002F003FC0028EBD1002016BD0120FD
:1003F00016BD10B5DFF8A447A37D627D617C0FF2C6
:10040000280002F078FB607C617D0843A17D0843F1
:100410004FF4004103D0002002F05CFD02E0002018
:1004200002F05AFD012010BD233E50777220502566
:1004300064204D25642049256400000070B582B019
:1004400004460E4602F0CEFF0020ADF80000DFF8B3
:100450004C57688C0146002E02D02043688401E08E
:10046000A0436884688C00281DD001283AD0022857
:100470006ED003286CD0042800F02E81052800F0EF
:100480007B81062800F05681072800F0D9811028CA
:1004900067D0112800F0AE80202800F08D80212840
:1004A00000F0E8801CE0DD208DF8000000AC0020AA
:1004B0006070022300AA7221092002F097FB002835
:1004C00000F0F28180208DF800000020607002238F
:1004D00000AA7221092002F089FB002800F0E481C3
:1004E000012076BD880701D5012028760022402111
:1004F000AB2001F0F8FF81208DF8000000ACEE2069
:100500006070022300AA7221092002F06FFB00280C
:1005100000F0CA8160786873DD208DF8000000204B
:100520006070022300AA7221092002F05FFB0028FC
:1005300000F0BA8180208DF8000003206070022353
:1005400000AA7221092002F051FB0028C8D1ABE1BA
:10055000012901D101202876FFF724FE0028BFD110
:10056000A2E18F208DF8000000AC0A206070022309
:1005700000AA7221072002F039FB002800F09481C4
:1005800080208DF8000081206070022300AA722173
:10059000072002F02BFB002800F08681DD208DF87B
:1005A000000008206070022300AA7221072002F0D8
:1005B0001DFB002894D177E180208DF8000000AC6D
:1005C00081206070022300AA7221072002F00EFB36
:1005D000002800F06981DD208DF80000082060709F
:1005E000022300AA7221072002F000FB00287FF4FA
:1005F00077AF59E1880701D50120287681208DF851
:10060000000000ACEE206070022300AA72210920D5
:1006100002F0ECFA002800F04781607868738F20C0
:100620008DF800000A206070022300AA72210720C2
:1006300002F0DCFA002800F0378180208DF80000FD
:1006400083206070022300AA7221072002F0CEFAF4
:10065000002800F02981DD208DF80000082060705E
:10066000022300AA7221072002F0C0FA00287FF4BA
:1006700037AF19E1880701D50120287681208DF850
:10068000000000ACEE206070022300AA7221092055
:1006900002F0ACFA002800F00781607868738020CF
:1006A0008DF8000083206070022300AA72210720C9
:1006B00002F09CFA002800F0F780DD208DF80000A1
:1006C00008206070022300AA7221072002F08EFA2F
:1006D00000287FF405AFE7E081208DF8000000AC32
:1006E000EE206070022300AA7221092002F07EFA37
:1006F000002800F0D98060786873DD208DF8000054
:1007000000206070022300AA7221092002F06EFA14
:10071000002800F0C98080208DF800000320607060
:10072000022300AA7221092002F060FA00287FF457
:10073000D7AEB9E00846800715D581208DF80000B6
:1007400000ACEE206070022300AA7221092002F0A2
:100750004DFA002800F0A880607868730FF24C1002
:1007600002F0C9F9BCE648077FF5BAAEFFF71AFDFB
:1007700000287FF4B5AE97E00846C0072CD581204D
:100780008DF8000000ACEE206070022300AA7221F8
:10079000092002F02BFA002800F086806078687348
:1007A000DD208DF8000000206070022300AA722175
:1007B000092002F01BFA002876D080208DF8000076
:1007C00003206070022300AA7221092002F00EFAB1
:1007D00000287FF485AE67E048077FF581AE0022F0
:1007E0004021AB2001F07FFE81208DF8000000AC9D
:1007F000EE206070022300AA7221092002F0F6F9AF
:10080000002851D060786873DD208DF8000000204A
:100810006070022300AA7221092002F0E7F9002883
:1008200042D080208DF8000003206070022300AACF
:100830007221092002F0DAF900287FF451AE33E08A
:1008400011F0050F05D0FFF7ADFC00287FF448AE8E
:100850002AE081208DF8000000ACEE2060700223B9
:1008600000AA7221092002F0C1F900281CD060788A
:100870006873DD208DF8000000206070022300AA5C
:100880007221092002F0B2F900280DD080208DF8E5
:10089000000003206070022300AA7221092002F0E8
:1008A000A5F900287FF41CAE002076BD233E21214F
:1008B00050522D3E4952000080B50FF2400002F028
:1008C0001AF90020ADF8000080208DF80000032008
:1008D0008DF80100022300AA7221062002F086F999
:1008E000002801D1002002BD01210020FFF7A6FD54
:1008F000002801D1002002BD012002BD233E484C4A
:10090000530000001CB5044600208DF80400ADF82B
:1009100006000120009001ABDE227221072002F0C8
:10092000C1F9002801D1002016BDDE208DF8060097
:100930009DF8040020438DF8070002230DF1060204
:100940007221072002F052F9002801D1002016BDC3
:10095000012016BD30B583B00FF29C0002F0CBF839
:100960000020ADF804000446FFF71FFDDFF8D41D9A
:1009700008700028DFF8D05D06D10FF2840002F085
:10098000BAF820463EBD641C0D2C11D260190079C6
:100990008DF804006019007D8DF80500022301AA7E
:1009A0007221072002F022F90028ECD100203EBD80
:1009B0007A4C0120009004F11A0391227221072041
:1009C00002F070F9002801D100203EBD0120009006
:1009D0002B4692227221072002F064F9002801D1EF
:1009E00000203EBD2A78A17E0FF2200002F083F89D
:1009F00003F084FA01203EBD233E50525000000017
:100A0000233E50505F4641494C000000233E505267
:100A1000205245562030782578204445562030789D
:100A20002578000038B55D4DA97E0FF2D40002F0A4
:100A300062F80020ADF8000028848C208DF80000BA
:100A400000AC2020607000202873022300AA7221CD
:100A5000072002F0CBF8002801D1002032BD012090
:100A60006874FFF7C6FC01210220FFF7E7FC0028AD
:100A700001D1002032BD88208DF80000F020607088
:100A8000022300AA7221072002F0B0F8002801D149
:100A9000002032BD89208DF800003F2060700223C5
:100AA00000AA7221072002F0A1F8002801D100203D
:100AB00032BD8A208DF8000000206070022300AA59
:100AC0007221072002F092F8002801D1002032BDE7
:100AD0008B208DF8000000206070022300AA722194
:100AE000072002F083F8002801D1002032BD202029
:100AF000FFF708FF002801D1002032BD012032BDE0
:100B0000233E50524F2030782578000000B583B046
:100B10000FF2900001F0EFFF00208DF80400DFF8E5
:100B20002C0C816A497A01291ED1C069407A0128BA
:100B30001AD101210020FFF781FC002801D10020FB
:100B40000EBD0120009001AB80227221072002F02F
:100B5000A9F8002801D100200EBD9DF804100FF265
:100B60004C0001F0C8FF0BE00C480021417402204A
:100B7000FFF764FC002801D100200EBDFFF739FC0F
:100B80002020FFF7BFFE002801D100200EBD01206C
:100B90000EBD00000CED00E00400FA05E09E002010
:100BA00088A00020233E505243000000233E26260A
:100BB000656E61626C652030782578000120704791
:100BC0001CB5044602F00EFC0020ADF806008DF8BE
:100BD00004000120009001AB9E227221072002F048
:100BE00061F800280ED09DF80400000612D50220FE
:100BF00000900DF106039C227221072002F052F8AA
:100C0000002801D1002016BD9DF8060020709DF837
:100C100007006070012016BD2DE9F04784B004463E
:100C200002F0E0FB054601F0E0FE064600200190E0
:100C3000ADF80800012000900DF107039E227221FB
:100C4000072002F02FF8002801D10020F8E201204F
:100C500000900DF1060393227221072002F022F882
:100C6000002801D10020EBE20220009002AB942288
:100C70007221072002F016F8002801D10020DFE2DF
:100C80000DF1080999F801009DF8081041EA0020CB
:100C9000DFF8A07D797BC1F58071BA7BDFF8983DE4
:100CA000D25C12FB01F140F242325143FA7E012A3A
:100CB00003D140F2BA22504302E040F22172504385
:100CC0006422504390FBF1F0F97C002901D1B86314
:100CD00008E0B86BB97F4A1CBA77062902DB00210D
:100CE000F974B977397C00290BD141F65931884222
:100CF00028DB01213974F8630020F877FFF7DCFD69
:100D000094E2F96B411A44F62162914212DA40F6FC
:100D1000B831884214DA9DF80620920610D5FA7F81
:100D2000531CFB77C92A01DA88420BDA884201DAC0
:100D300000213974F8630020F877FFF7BDFD75E2F4
:100D40000020F8779DF80600800640F178820120A7
:100D500038770220009002AB9C227221072001F01C
:100D6000A1FF002801D100206AE299F801009DF856
:100D7000081041EA00280FFA88F841460FF2C840EF
:100D800001F0B9FE9DF80800607099F80100A070AC
:100D9000A7F82080787C002872D0387B00286FD19B
:100DA000002030758C208DF804000DF104092020FE
:100DB00089F801003873022301AA7221072001F08B
:100DC00015FF002801D100203AE205F28A0AB5F8A1
:100DD0008A00002803D0BAF8020000280BD10FF2D5
:100DE000207001F088FE4FF4FA60A5F88A0040F206
:100DF000DC50AAF8020088208DF80400002089F851
:100E00000100022301AA7221072001F0EFFE002851
:100E100001D1002014E289208DF80400002089F817
:100E20000100022301AA7221072001F0DFFE002841
:100E300001D1002004E28A208DF80400B5F88A0070
:100E400089F80100022301AA7221072001F0CEFED9
:100E5000002801D10020F3E18B208DF80400B5F8C3
:100E60008A00000A89F80100022301AA72210720E2
:100E700001F0BCFE002801D10020E1E1012038751D
:100E800005F28A0ABAF80220B5F88A100FF2C430C7
:100E900001F031FE787C002800F0C881B5F88A00A6
:100EA000804551DB307D00284ED10120F873207041
:100EB0002078307588208DF804000DF10409BAF807
:100EC000020089F80100022301AA7221072001F023
:100ED0008DFE002801D10020B2E189208DF80400A8
:100EE000BAF80200000A89F80100022301AA72215F
:100EF000072001F07BFE002801D10020A0E18A201C
:100F00008DF80400FF2489F80140022301AA722110
:100F1000072001F06BFE002801D1002090E18B201A
:100F20008DF8040089F80140022301AA72210720EC
:100F300001F05CFE002801D1002081E141460FF262
:100F4000243001F0D8FD71E1BAF80200404553DBCE
:100F5000307D012850D10120F873002020702078C6
:100F6000307588208DF804000DF10409002089F8FF
:100F70000100022301AA7221072001F037FE002898
:100F800001D100205CE189208DF80400002089F85F
:100F90000100022301AA7221072001F027FE002888
:100FA00001D100204CE18A208DF80400B5F88A00B8
:100FB00089F80100022301AA7221072001F016FE20
:100FC000002801D100203BE18B208DF80400B5F80A
:100FD0008A00000A89F80100022301AA7221072071
:100FE00001F004FE002801D1002029E141460FF262
:100FF0007C2001F080FD19E1B5F88A00404557DBFF
:10100000307D002854D1387D012851D10120F8735A
:1010100000202070207830750020387588208DF8E9
:1010200004000DF10409002089F80100022301AA3F
:101030007221072001F0DAFD002801D10020FFE035
:1010400089208DF80400002089F80100022301AAFC
:101050007221072001F0CAFD002801D10020EFE035
:101060008A208DF80400B5F88A0089F8010002236F
:1010700001AA7221072001F0B9FD002801D100204A
:10108000DEE08B208DF80400B5F88A00000A89F8AC
:101090000100022301AA7221072001F0A7FD002808
:1010A00001D10020CCE00FF2CC1001F024FDBDE016
:1010B000B5F88A00804555DB307D012852D1387D56
:1010C00001284FD10120F87320702078307500205E
:1010D000387588208DF804000DF10409BAF8020073
:1010E00089F80100022301AA7221072001F07EFD88
:1010F000002801D10020A3E089208DF80400BAF86F
:101100000200000A89F80100022301AA72210720C7
:1011100001F06CFD002801D1002091E08A208DF8BB
:101120000400FF2489F80140022301AA722107204C
:1011300001F05CFD002801D1002081E08B208DF8BA
:10114000040089F80140022301AA7221072001F05E
:101150004DFD002801D1002072E00FF2201001F0B7
:10116000CAFC63E0B5F88A0080455BDABAF8020091
:10117000404557DA307D012854D1387D012851D1BE
:101180000120F87300202070207830750020387519
:1011900088208DF804000DF10409002089F8010071
:1011A000022301AA7221072001F020FD002801D1AD
:1011B000002045E089208DF80400002089F8010016
:1011C000022301AA7221072001F010FD002801D19D
:1011D000002035E08A208DF80400B5F88A0089F8EF
:1011E0000100022301AA7221072001F0FFFC002860
:1011F00001D1002024E08B208DF80400B5F88A008E
:10120000000A89F80100022301AA7221072001F0D7
:10121000EDFC002801D1002012E00FF2680001F07F
:101220006AFC03E00FF2640001F065FC2020FFF788
:1012300069FB002801D1002002E0012000E000202D
:1012400004B0BDE8F0870000233E5072617720258E
:1012500064000000233E55703D25642C4C6F3D25F5
:1012600064000000233E503120256400233E5032AC
:1012700020256400233E526554483100233E5265C8
:1012800054483200233E526554483300233E456C97
:10129000736500002DE9FC4104460D460020ADF8C1
:1012A00004000646DFF88C7738770120009001AB08
:1012B00093227221072001F0F5FC00280AD00120BA
:1012C00000900DF105039E227221072001F0EAFC37
:1012D000002801D130467FE09DF80400000713D5B7
:1012E000787D002806D00120387700F053FD304685
:1012F000F87571E0B87D002806D00120387701F03C
:10130000C9F83046F87567E002F06CF8804620783E
:10131000072825D16078FF2822D12946601CFFF7D5
:101320004FFCA078617841EA002212B2B8F88A0036
:10133000824207DB0120207021780FF2A00001F02B
:10134000DAFB0AE0B8F88C00904206DB30462070E9
:1013500021780FF2880001F0CEFB01203CE0761CE2
:101360000020F87529462046FFF756FC00280DD0CE
:10137000787C00280AD0F87B002807D00FF2700094
:1013800001F0B9FB0020F8730120F875052E03DA8F
:1013900003F03EFB0028E2D09DF80400C021084283
:1013A00001D001203877387F002807D1786B411CA5
:1013B00079630FF2440001F09EFB01E000207863A6
:1013C000786B1E2807DB0FF2480001F094FBFEF754
:1013D000DBFE00207863F87DBDE8F681233E536C88
:1013E0006565702041444320256420256400000089
:1013F000233E505550000000233E696E76616C69B3
:101400006420696E7420636E7420256400000000FF
:10141000233E5265736574525100000070B582B06E
:1014200005460020ADF8000001F0DCFF0446DFF8BF
:101430000406012101752878697841EA0020A4F8A2
:101440008A0004F28A06A878E97841EA00207080D0
:10145000B4F88A00002802D07088002809D10FF261
:10146000A00001F048FB4FF4FA60A4F88A000020C5
:10147000708088208DF8000000ADF0206870022395
:1014800000AA7221072001F0B1FB002801D1002041
:1014900076BD89208DF800003F206870022300AAE5
:1014A0007221072001F0A2FB002801D1002076BDA7
:1014B0008A208DF8000000206870022300AA7221A3
:1014C000072001F093FB002801D1002076BD8B207E
:1014D0008DF8000000206870022300AA7221072006
:1014E00001F084FB002801D1002076BD7288B4F899
:1014F0008A100FF2140001F0FEFA012076BD000000
:10150000233E5054483D3000233E54485345542018
:10151000256420256400000010B584B0044601A8AD
:1015200000210A4606C00820009001ABC0227221AB
:10153000092001F0B7FB002801D1002019E09DF837
:101540000400207001A8417861708178A170C17891
:10155000E17001792171417961718179A171C1795C
:10156000E17142789DF804100FF20C0001F0C3FA0B
:10157000012004B010BD0000233E505220474554C6
:10158000205452494D203078257820307825780035
:1015900080B50FF21801072003F0CAFE0FF23401E4
:1015A0000A20BDE8044003F0C3BE0000550900084E
:1015B000250A00080D0B0008BD0B00080000000004
:1015C000951200081D140008000000000000000033
:1015D0000000000055090008250A00080D0B00084E
:1015E000BD0B000800000000C10B00081D1400081E
:1015F0000000000000000000000000000020704714
:10160000002070470020704700207047002070477E
:1016100000207047002070470FF20801062003F0F9
:1016200087BE0000FD150008011600080516000819
:1016300009160008000000000D1600080000000058
:1016400015160008111600080000000038B50FF24A
:10165000480001F050FA3B4C2078002817D00020B9
:10166000ADF80000054600E06D1C052D11D22819CB
:1016700000798DF800002819007B8DF80100022305
:1016800000AA7221092001F0B1FA0028ECD1002053
:1016900032BD012032BD0000233E4C4947500000BE
:1016A00010B582B0E34CA17E0FF25C0001F023FA8A
:1016B0000020ADF8000090208DF8000003208DF888
:1016C0000100022300AA7221092001F08FFA0028EC
:1016D00001D1002016BD0320A07301206076A07404
:1016E0000320206301210846FEF7A8FE002801D14F
:1016F000002016BD1020FFF705F9002801D10020B9
:1017000016BD012016BD0000233E4C49474F203036
:101710007825780080B50FF2380001F0ECF9C54863
:10172000002181740120FEF789FE002801D10020EC
:1017300002BD1020FFF7E6F8002801D1002002BD0D
:10174000012002BD18A00020B09F0020BC60012035
:10175000233E4C4947430000012070472DE9F04FDC
:101760008DB004460AA800210A4606C088460846ED
:10177000CDE90801DFF8140DD0F824A008468AF856
:1017800072000120009006ABAB227221072001F00D
:1017900089FA002861D09DF8180040065DD4A54D57
:1017A000687F002848D02878207068786070A87812
:1017B000A070E878E0702879207168796071A87964
:1017C000A071E879E071287A2072687A6072607896
:1017D000217841EA0029E078A17841EA0026607981
:1017E000217941EA0027E079A17941EA002808A897
:1017F000009043463A463146484600F0C6F9DDE9D6
:101800000801C5E90A01286B0128C0F20F81DDE952
:101810000801CDE90401A87B0290687B0190CDF816
:1018200000803B46324649460FF2102001F063F932
:10183000286B401E2863F9E0687E012803D0287ECB
:10184000002840F08C80082000900AAB942272217E
:10185000092001F027FA002801D14046E7E09DF871
:101860002800A0710AA84178E17181782170C178BF
:1018700061700179A1704179E17081792171C0793C
:101880006071687B2072A87B60726078217841EA81
:101890000029E078A17841EA00266079217941EABF
:1018A0000027E079A17941EA002808A80090434682
:1018B0003A463146484600F068F900281BD1687E58
:1018C00001284DD100206876DFF8C40B5B21017040
:1018D00000214170852181700021C170AE2101710C
:1018E00000214171702181710121C171EE210172CC
:1018F0000021417234E000206876DFF8940B2178F3
:10190000017061784170A1788170E178C1702179AE
:10191000017161794171A1798171E179C171217A96
:101920000172617A4172DDE90801C5E90A01286B9B
:10193000012864DBDDE90801CDE90401A87B029000
:10194000687B0190CDF800803B46324649460FF255
:10195000201001F0D0F8286B401E28634FE04ED0D5
:10196000DFF82C0B01782170417861708178A170CB
:10197000C178E17001792171417961718179A17139
:10198000C179E171017A2172407A60720020287673
:101990006078217841EA0029E078A17841EA0026C0
:1019A0006079217941EA0027E079A17941EA0028AC
:1019B000687B8DF81900207A687395F80EB0607A0C
:1019C000A87308A8009043463A463146484600F0BE
:1019D000DCF8DDE90801CDE90401A87B0290687B11
:1019E0000190CDF800803B46324649460FF2B400E4
:1019F00001F081F89DF81900687385F80EB01FFAA0
:101A000089F9B9F15B0F11D1B6B2852E0ED1BFB2F3
:101A1000AE2F0BD1B8F5B87F08D1207AEE2805D1CA
:101A2000607A002802D101208AF8720001200DB0EE
:101A3000BDE8F08FE09E0020E01C0008233E6920F6
:101A4000723D256420673D256420623D2564206346
:101A50003D2564206174696D653D25642061676181
:101A6000696E3D2564206C75783D256C6C642000A2
:101A7000233E723D256420673D256420623D256438
:101A800020633D2564206174696D653D2564206196
:101A90006761696E3D2564206C75783D256C6C64CA
:101AA00020000000233E4040723D256420673D2514
:101AB0006420623D256420633D2564206174696D66
:101AC000653D25642C20616761696E3D2564206C4D
:101AD00075783D256C6C6420000000001CB5044640
:101AE0000020ADF806008DF804000120009001AB45
:101AF00090227221092001F0D5F8002801D10020A0
:101B000016BD9DF8040000F0FC008DF80400012CC7
:101B10000AD0042C04D0102C1FD0402C22D026E058
:101B200040F001008DF8040090208DF806009DF82B
:101B300004008DF80700DFF8F44A9DF8040000F077
:101B40000300A07302230DF106027221092001F0A7
:101B50004DF800280DD1002016BD40F002008DF890
:101B60000400E1E740F003008DF80400DCE700200A
:101B700016BD0120E07416BDDFF8B01AC8767047B4
:101B8000DFF8A82AD2E90A0170472DE9F84FDFF8FB
:101B90009CCA9CF81B40012C06D140F2BA2A40F2A4
:101BA000C67740F60C0405E040F2217A40F2023795
:101BB0004FF4B4741E4693468946804609EB0800EC
:101BC0005844801B00EBD07045102DB29CF80E00DD
:101BD0000FF20C11405C9CF80D10C1F5807110FBE8
:101BE00001F240F6DC2C0CFB02F200928902B1F506
:101BF000803F01D34FF6FF71C9000A22B1FBF2F119
:101C0000102852D18B4250D30120FFF767FF0028E4
:101C100063D1A9EB050CABEB050E0A9E45450BDA2B
:101C2000D6E9000102460B46A8EB05007843C11730
:101C300010185941C6E900014D450CDAD6E90001FA
:101C400002460B464FF47A7000FB0CF0C1171018D7
:101C50005941C6E900015D4508DAD6E900010EFBED
:101C600004F2801851EBE271C6E90001D6E90001E7
:101C7000002905DC00DB03D200200146C6E9000193
:101C8000D6E900234FEAEA7BAAFB02010AFB031113
:101C90000BFB0211C6E90001009A002303F0F4FDDA
:101CA000C6E900010120BDE8F28F102807D1642E9B
:101CB00005DA4020FFF712FF00280ED1A9E74028DF
:101CC00002D164398B4203D20128A2D1642EA0DA5A
:101CD0001020FFF703FF00289BD00020E3E700005F
:101CE000010410400FF20801092003F021BB00009D
:101CF0004D160008A116000815170008591700080E
:101D0000000000005D170008000000000000000057
:101D10000000000000000000DFF8101948750120E5
:101D2000704710B5DFF8084B20202070002060704D
:101D30000A20A0700020E0700A202071002060714D
:101D40003220A0710020E07207222146DFF8E40A69
:101D500003F033FE00206072012010BD00B583B097
:101D600000A800210A4606C00722DFF8C41A0DF1B8
:101D7000010003F022FEA0208DF80000082300AA35
:101D80007221072000F032FF002801D100200EBD93
:101D900001200EBD80B5DFF8980A417B012903D1EF
:101DA00000F0F5F8012002BD018AFF290CD00029BE
:101DB0000DD0C27A521CC272491E0182417AD2B23F
:101DC000914201D20021C17200F010F805E0418A71
:101DD00001820021C17200F009F80820FEF792FD8F
:101DE000002801D1002002BD012002BD38B500202D
:101DF000ADF80000DFF8384A208A002801D1A07A27
:101E000060720722E07AC0EBC000DFF8281A4118A0
:101E1000204603F0D2FDFFF7A1FFA7208DF80000B8
:101E200000ADE0896870022300AA7221072000F04B
:101E3000DDFE002801D1002032BD01211020FEF777
:101E4000FDFAA9208DF8000001206870022300AA85
:101E50007221072000F0CAFE002801D1002032BD07
:101E6000012032BD3EB50446607902902079019090
:101E7000E0780090A378627821780FF6DC1000F00B
:101E80003AFEDFF8B4598122FF21284603F09BFD7A
:101E900080222146681C03F090FD002028708123D9
:101EA0002A467221072000F0A1FE002805D10FF676
:101EB000C01000F020FE00203EBD01203EBD80B5D8
:101EC00001780F2905DADFF86829527A521C8A4214
:101ED00005DA0FF6A81000F00EFE002002BD4278D1
:101EE000202A01DB202242700022C2704271C1EB25
:101EF000C101DFF8402920238B54891800224A7041
:101F00004278002A01D1002201E05200521E8A715B
:101F100082788A70C278CA7002790A7140794871F1
:101F2000012002BDDFF80809417A491C4172817223
:101F30000120704738B50446DFF8F4582C82FFF7CB
:101F4000F0FE002C00D06C8221460FF6401000F00D
:101F5000D2FD012032BDDFF8D81848730120704748
:101F6000DFF8D818087001207047DFF8D008007833
:101F7000704780B5DFF8B81808730A7B5200CA8131
:101F800001460FF6181000F0B6FD012002BD10B595
:101F9000DFF89C48217A0FF6141000F0ACFD002009
:101FA000FFF7BAFE00206073607201461020FEF752
:101FB00045FAFEF71EFA0820FEF7A4FC002801D11E
:101FC000002010BD012010BD2DE9FE4F04460D4636
:101FD00016461F4600208246814680461AE05A4631
:101FE00009EB040100A803F0E8FC00A800210BF8AD
:101FF000001008F101090A2203F0EFFC0FFA8AFA37
:1020000051464A1C974211DB45F821000AF1010AAA
:1020100008F10108B0450BDA18F8041030390A2924
:10202000F6D3A8EB090BBBF10A0FD8DB4FF0000A7F
:1020300002460FFA8AFA51460FF67C0000F05BFD6B
:102040005046BDE8FE8F38B504460020ADF80000CC
:1020500005294CD1A1208DF8000000AD20786870D2
:10206000022300AA7221072000F0C0FD002801D140
:10207000002032BDA2208DF8000060786870022335
:1020800000AA7221072000F0B1FD002801D1002034
:1020900032BDA4208DF80000A0786870022300AA49
:1020A0007221072000F0A2FD002801D1002032BDDE
:1020B000A5208DF80000E0786870022300AA722144
:1020C000072000F093FD002801D1002032BDA6209A
:1020D0008DF8000020796870022300AA7221072081
:1020E00000F084FD002801D1002032BD012032BD66
:1020F00070B58AB004460D462E46212E01DB002025
:102100002CE02122002100A803F05DFC2A46214694
:102110000DF1010003F051FC212E01DA002E05D152
:102120000FF2A87000F0E7FC002017E00222032164
:102130008D2000F0D8F900208DF80000731CDBB270
:1021400000AA7221072000F051FD002805D10FF2EE
:102150008C7000F0D0FC002000E001200AB070BDBF
:10216000F0B5C1B005460E46344640F20117BC42F8
:1021700001DB00204BE03A46002100A803F023FCDD
:10218000324629460DF1010003F017FCBC4201DA8A
:10219000002C05D10FF2587000F0ADFC002036E0A5
:1021A000812C01DA254600E08025002203218D20C4
:1021B00000F099F900208DF800006B1CDBB200AA3A
:1021C0007221072000F012FD002805D10FF23470B3
:1021D00000F091FC00201AE0812C17DB0122032182
:1021E0008D2000F080F900208DF88000A4F17F039D
:1021F000DBB220AA7221072000F0F8FC002805D1EC
:102200000FF2147000F077FC002000E0012041B0D4
:10221000F0BD80B50021ADF80010002810D00128D5
:1022200027D1A9208DF8000008468DF8010002236F
:1022300000AA7221072000F0D9FC00281BD10DE074
:10224000A9208DF8000002208DF80100034600AAA5
:102250007221072000F0CAFC002801D1002002BD35
:10226000DFF8DC05002101700FF2C06000F043FCD4
:1022700001E000F002F8012002BD80B50022082133
:10228000DD2000F030F9002801D1002002BD00213E
:102290002020FEF7D3F8DFF8940300218175FEF7C4
:1022A000A8F8012002BD10B582B00FF2886000F0DE
:1022B00022FC00A800F0FEF8002805D10FF2806093
:1022C00000F019FC002016BD9DF8000001280AD07E
:1022D000DFF85843A07D012805D0607D012802D099
:1022E000607C012801D1002016BD01212020FEF7CD
:1022F000A5F8002805D10FF2586000F0FCFB002083
:1023000016BD0120A075FEF774F8012016BD2DE959
:10231000F04389B00E460024DFF828554FF40073CF
:10232000324605F14801FFF74FFE002806D131463D
:102330000FF2286000F0DFFB01249BE0AE6C214629
:10234000019106A900910DF11A0307AA411E89B255
:1023500005F14C0003F0CAFDBDF81A00BDF81C10D1
:10236000401A401CADF81000BDF8102005F14C01DA
:10237000304603F09DFD05F1280204A905F14C004B
:1023800003F0ADFB070005D10FF2DC5000F0B3FB0A
:1023900001246FE0204606E005EB40010A8D0A7239
:1023A000120A4A72401C1028F6DB7F0001200190BF
:1023B0000DF1120000900DF1160305AABDF81010E2
:1023C00005F14C0003F092FD05F64C0807EBD770C1
:1023D00040100390CDF8088005F128000190BDF869
:1023E00012000090BDF81430BDF816001946401ACE
:1023F000421C92B2BDF8101005F14C0003F006FB30
:102400008146B9F1000F05D10FF26C5000F073FB5B
:1024100001242FE018202870BDF81200401E6870BB
:10242000BDF81800401EA8702046E870DFF81804B8
:10243000B0FBF6F02871DFF8101406FB1010B0EBBB
:10244000560F02D32879401C28712879C01E2871A4
:1024500005212846FFF7F7FD394609B205F10800C6
:10246000FFF746FE494609B24046FFF779FE20468F
:10247000FFF7CFFE002C04D06C4800218175084680
:1024800000E0012009B0BDE8F0830000BC6001203D
:10249000FC8C012080B5FFF7F0FE002801D1002060
:1024A00002BD0820FEF72EFA002801D1002002BD4F
:1024B000012002BD1CB504460120009001ABA822FA
:1024C0007221072000F0EEFB002801D1002016BD8C
:1024D0009DF8040000F00100411E8941C943C90F65
:1024E0002170012016BD7CB506460C46154600201D
:1024F000ADF806008DF804000120009001AB3246D3
:102500007221072000F0CEFB002801D1002076BD0B
:102510008DF806609DF80400A04328438DF8040060
:102520009DF804008DF8070002230DF106027221C8
:10253000072000F05BFB002801D1002076BD0120C0
:1025400076BDBF49087800220A70704738B50FF28F
:10255000344000F0D0FA0020ADF80000BB4C2078E9
:10256000002814D0002500E06D1C052D11D228197B
:1025700000798DF800002819007B8DF801000223F6
:1025800000AA7221092000F031FB0028ECD10020C4
:1025900032BD012032BD10B582B0244CA17E0FF2B5
:1025A000F03000F0A8FA0020ADF8000090208DF87F
:1025B000000003208DF80100022300AA72210920E7
:1025C00000F014FB002801D1002016BD0020A084DB
:1025D0000320A0730120607701460420FDF72EFF41
:1025E000002801D1002016BDFA20FEF78BF9002843
:1025F00001D1002016BD012016BD80B50FF2A0301C
:1026000000F079FA0948002141770420FDF716FF10
:10261000002801D1002002BDFA20FEF773F900283E
:1026200001D1002002BD012002BD0000E09E00207B
:1026300001207047F0B587B002A800210A4606C005
:102640000846CDE904018DF80400012000900DF149
:1026500005039E227221092000F024FB002801D1ED
:10266000002057E00120009001ABAB22722107202F
:1026700000F018FB002801D100204BE09DF8050078
:10268000400603D59DF80400400601D5002041E036
:102690000820009002AB94227221092000F002FB76
:1026A000002801D1002035E0002202218020FFF720
:1026B0001AFF674A9DF80800907102AB5E78D671E8
:1026C00098781070DC785470197991705D79D570B4
:1026D0009F79177193F807C082F805C0537B137276
:1026E000937B537204AB0093927942EA062347EA44
:1026F0000C2241EA052140EA0420FFF746FA402275
:102700001146AB20FFF7EFFE022211468020FFF7B3
:10271000EAFE012007B0F0BD7FB5044602A8002103
:102720000A4606C04B48056E08468DF80400012095
:1027300000900DF105039E227221092000F0B2FAEB
:10274000002801D1002069E00120009001ABAB22FC
:102750007221072000F0A6FA002801D100205DE0D8
:102760009DF80500400603D59DF80400400601D4FD
:10277000002053E00820009002AB9422722109202F
:1027800000F090FA002801D1002047E00022022149
:102790008020FFF7A8FE02A841789DF8082042EAB1
:1027A0000121C278837843EA022212FA81F1427948
:1027B000037943EA022211FA82F1C279807940EA70
:1027C000022011FA80F0224E411000EB917080102F
:1027D000B08400224021AB20FFF785FE0222114683
:1027E0008020FFF780FEB6F9240020700012607090
:1027F0003078A0707078E070B0782071F0786071F7
:102800003079A0717079E071B0792072F0796072DE
:10281000307AA072707AE0720120A87704B070BD9F
:102820000FF28811182002F083BD05490870704727
:10283000DC8B0120BC500120A47D0120AE8E012044
:10284000AD8E01200C1C0120FCD93D0018A00020F9
:10285000E09E0020BC6001204D42442025642025DC
:102860006420256420256420256420256400000060
:102870004D6F6265616D2057460000004D6F6265C7
:10288000616D20486F70204661696C004D422048A0
:102890006F70436F756E7420256400004D6F626524
:1028A000616D204C656E3D25640000004D42204363
:1028B0006C6F736520256400233E6465635F646507
:1028C0006C696D742025642025640000233E5359F3
:1028D0004D424F4C205441424C450000233E52454E
:1028E0004D434F4E2074696D656461746100000052
:1028F000233E53594D424F4C207061747465726E83
:1029000031000000233E52454D434F4E207061740C
:102910007465726E32000000233E52454D434F4EA7
:10292000207061747465726E33000000233E53544E
:1029300041525400233E49524F50454E0000000082
:10294000233E52454D434F4E20427573790000009F
:10295000233E454E204641494C000000233E53593A
:102960004D424F4C20256400233E616D7354696DC8
:102970006553697A65000000233E50617474657286
:102980006E000000233E4C494749525000000000B1
:10299000233E4C494749524F2030782578000000AB
:1029A000233E4C4947495243000000004D25000892
:1029B00097250008FB250008312600083526000869
:1029C00019270008000000000000000000000000BF
:1029D0000000000010B5DFF864494FF404720021D4
:1029E000204602F0F0FF204610BDDFF85009704786
:1029F00010B5FFF7EFFF044600231A4611460846BC
:102A000000F080FAC046C04600F0ADFD0A21204625
:102A100000F05AF801F0FCF901F06CF800F00AFD42
:102A2000204600F00AFA204600F018F8DFF81009F6
:102A3000006800F02EFF204600F0AAF900F009FB24
:102A400000F0C6F900206072A072E07220730120CD
:102A500060730020E075A073012010BD10B504461E
:102A6000DFF8E00800F077FE0120607110BD10B5BE
:102A7000044600F08CFF0120A07110BD38B504465B
:102A8000012501F038F9012804D12846E070002022
:102A9000A0700AE0022804D10020E0702846A0704F
:102AA00003E00020E070A0700546284632BD80B5E6
:102AB00001F0C4FA012002BD10B50446E07901F02E
:102AC0000BFC0121217010BD70B504460025E6798C
:102AD000E171FFF7F1FF002807D02046FFF7BEFFA6
:102AE0002046FFF7C4FF012503E0E6712046FFF70B
:102AF000E3FF284670BD0EB470B5C1B0054600A80E
:102B00004FF4807103F070FAFFF76FFF044645AB96
:102B10002A464FF4807100A803F07AFA00A803F067
:102B200095FA451C00A82818002100F8011CDFF8C0
:102B300018683078401C30707078F021084202D05C
:102B4000992003F0ABFA03F016FB7078401C70700C
:102B5000207E2818B0F5FA7F10DA207E002803D0F6
:102B6000207E00190A2101762A4600A9207E00193C
:102B7000193002F022FF207E281820767078F0218C
:102B8000084202D0992003F089FA7078401E7070D4
:102B9000C0B2002801D103F0E8FA03F016FD41B0FD
:102BA00070BC5DF810FBDFF86007DFF89817016074
:102BB000704710B50446FFF718FF0069E040C007F2
:102BC0000ED5DFF888472068401C20601E2807DBF0
:102BD0000FF28870FFF78FFF01F0F6FB00202060F6
:102BE00010BDDFF868070021016070472DE9F84348
:102BF00005460E4617464FF00208DFF84C4760784E
:102C0000F021084202D0992003F048FA03F0B3FA09
:102C10006078401C60709DF80000401E8DF8000038
:102C200017F8019B2846FFF7BEFF00AB4A4639461E
:102C3000304601F005FC002812D06078F0210842EF
:102C400002D0992003F02AFA6078401E6070C0B26A
:102C5000002801D103F089FAFFF7C3FF01201FE02C
:102C60005FFA88F8424629460FF20470FFF743FFE7
:102C70004046A0F101080028D7D16078F021084231
:102C800002D0992003F00AFA6078401E6070C0B24A
:102C9000002801D103F069FA2846FFF78AFF0020D7
:102CA000BDE8F2832DE9F04704460D4616461F465F
:102CB000DFF85C86089888F80000DFF88C9699F8B1
:102CC0000100F021084202D0992003F0E7F903F057
:102CD00052FA99F80100401C89F801002046FFF7DC
:102CE00062FF4FF0020A434632463946284601F059
:102CF0005BFC002815D099F80100F021084202D0B1
:102D0000992003F0CBF999F80100401E89F80100E1
:102D1000C0B2002801D103F028FAFFF762FF0120BA
:102D200022E05FFA8AFA524621460FF25060FFF71E
:102D3000E2FE5046A0F1010A0028D4D199F8010022
:102D4000F021084202D0992003F0A8F999F8010077
:102D5000401E89F80100C0B2002801D103F005FA35
:102D60002046FFF726FF0020BDE8F08780B511461A
:102D7000029A184600F06CFD012002BD80B5104695
:102D80005A1E92B20178401C00F042FD012002BDA3
:102D90001CB504460120009001AB7522D021002013
:102DA000FFF7E4FF9DF80400702808D1002084F8A4
:102DB0000E020FF2D450FFF79EFE012016BD022036
:102DC00084F80E020FF2C850FFF795FE012016BDE1
:102DD00002F047BCF8B5044602270025DFF82C6551
:102DE0000DE039464F1EC9B200290AD1002804D18E
:102DF00020690121A9408843206102276D1C1B2DF9
:102E000010DA56F82500806F006880470128E8D165
:102E100021690122AA401143216156F8251001229F
:102E20000A77E3E72069032803D0022801D00128AC
:102E300002D140F480502061F1BD01F0F8BC01F0F6
:102E400061BD01F00BBD0000DFF8FC04026A036AFB
:102E500000BF00BF00BF00BF00BF9B1A8B42F6DB64
:102E60007047417230B597B003F0CAFC0446FFF7D3
:102E7000BCFD054600A85C2103F0B6F80020ADF8C3
:102E800058008DF801000DF101000A214170002168
:102E90008170C170697A00290DD0002C18D00021F2
:102EA0008DF8001005218DF801100B21417000A84C
:102EB00005F0C0FF0CE0002C0AD001218DF80010B5
:102EC00005218DF801100B21417000A805F0B2FF1B
:102ED00017B030BD01F034BD01F03CBD022101202E
:102EE000F8E702210120F7E701210846F2E7012176
:102EF0000846F1E701F038BD10B50446FFF775FD4F
:102F0000447510BD2DE9F04782B00C4615462F469A
:102F1000264680464FF47A714FF03C0C4FF46169BD
:102F200018FB09F216FB0C22BA1801FB0232DFF87B
:102F3000E4E39EF900A01AFB09F99EF901A01AFB2F
:102F40000C9C9EF902904CFA89FCBEF9039001FB9F
:102F50000C919EF808C0BCF1000F22D144EA000198
:102F60002943194302D001218EF808108EF8000081
:102F7000B8F1000F04D59EF8000018308EF800005C
:102F80008EF801408EF80250AEF8033000933B46B5
:102F900032469EF900100FF23840FFF7ACFDBDE855
:102FA000F38791420DD3A1EB020CACF2D17CDFF898
:102FB000A093CC45DAD30FF2F43002B0BDE8F0476D
:102FC00099E5D3D2A2EB010CACF2D179DFF880A362
:102FD000D145CBD363460FF2E43002B0BDE8F047F1
:102FE00089E510B504002FD003F0E0FCC949CA6898
:102FF000002A00D0841AB1F80320A218A1F80320F7
:1030000012B2B2F57A7F06DBA2F57A72A1F803203C
:103010008A78521C8A7091F902203C2A04DB3C3ADF
:103020008A704A78521C4A7091F901203C2A04DBCC
:103030003C3A4A700A78521C0A7091F90020182A0A
:1030400001DB00220A70C86010BDB249052206F0FB
:103050004FB8B1480021017041701E22AF4802F004
:10306000B2BC3FB400210120AB4A1278002A0CD137
:103070002CE05C68019DAC4224D11B89BDF808405E
:10308000A3421FD10020491CC9B291421EDAC1EBF4
:10309000C103A24C04EB43039DF80340DD78A54235
:1030A00013D1002CE5D09C88BDF80450AC4209D166
:1030B000DC88BDF80650AC4204D11B89BDF808403D
:1030C000A342DFD000F00100DDE7012004B030BCF6
:1030D00070477FB40020014626E0C0EBC0025400D8
:1030E0008E4D66193C224FF46163645D757812FB66
:1030F00005F513FB0454B57864199DF800509DF84C
:10310000016012FB06F213FB05229DF8023052FA11
:1031100083F2A24201D2824B9A18121BB2F5966F2B
:1031200000D9491C401CC0B27B4A13789842D4DBBA
:10313000C9B28B4202D20020107001E0581A107000
:103140007FBC70472DE9FF419DF80340022C5EDAF9
:1031500000A80FC8FFF785FF012858D100A80FC8A5
:10316000FFF7B7FF9DF802509DF801606B4FDFF845
:10317000A88198F80000032825D13C214FF4616014
:103180003A787B7811FB03F310FB0232BB78D2183C
:103190009DF8003011FB06F110FB031050FA85F08A
:1031A000904201D25E490818811AB1F5966F02D992
:1031B0004FF4966000E0801AA8F80200FFF749FF7C
:1031C000012088F8010098F80000C0EBC001490018
:1031D0009DF80020CA55C9194E708D70CC70BDF88D
:1031E0000820002C09D1019B4B600A81BDF80A2000
:1031F0004A81BDF80C208A8106E0BDF804308B803E
:10320000BDF80630CB800A81401C88F80000BDE87C
:10321000FF814149487800224A7070473E48408803
:103220007047242200214B4802F0CDBB1CB500A8FA
:10323000FFF70BFF474C24220021204602F0C3FB7E
:103240009DF80000607604F219009DF801104170AD
:103250009DF802108170FF21817213BD0FB410B56B
:103260002DED028B2F4C104605F082FF2E4A2F4B7E
:1032700005F096FF206161619FED2D8B049805F0AC
:1032800077FF53EC182B05F08BFF206061600598E9
:1032900005F06EFF53EC182B05F082FFA060E16093
:1032A0009DF81C00207604F118009DF81D10417057
:1032B0009DF81E1081709DF81F10C1709DF82010A0
:1032C0000171BDF8210000EE100AB8EE400A10EEC0
:1032D000100A06F037F8184A1F4B05F061FF06F098
:1032E00059F8C4F81D00BDF82300A4F821009DF88A
:1032F000250084F82300BDEC028B10BC5DF814FBA4
:103300000849242205F0F4BE80A00020BC60012002
:10331000B08E0120808C0120148E01202C89012088
:1033200080510100CC890120FCA9F1D24D62503FAF
:103330008DEDB5A0F7C6B03E3BDF4F8DC0630120D9
:103340009CA0002000540040849F0020188E012083
:103350005F4C2605F0890120976EA23F233E496EFF
:103360006974696C61697A65204932430000000024
:103370004957452025642025640000004952452016
:103380002564202564000000496E76656E0000000B
:10339000556E6B6E6F776E2036617869732073653A
:1033A0006E736F72212121210000000041542D53C2
:1033B00065745453312025642025640041542D53F5
:1033C0006574545332202564202564202564000050
:1033D00041542D536574542025643A25643A25647C
:1033E0002E25640000487047807C012009010028D8
:1033F00007D500F00F00DFF8E42C801800F8041C5B
:103400007047DFF8DC2C8154704710B5401EB0F1D6
:10341000807F01D3012010BDDFF8C84C60600F2110
:103420004FF0FF30FFF7E2FF0020A0600720206090
:10343000002010BDF0B595B00121084606F057F800
:103440000121202006F08AF80021202006F086F8CD
:103450000121202006F061F8DFF88C4C08220C21B5
:10346000204606F087F908220B21204606F082F953
:1034700000208DF8060001208DF8070002208DF84D
:1034800004004FF48050009002208DF8050000A940
:10349000204606F021F902208DF804004FF4006068
:1034A000009000A9204606F017F94FF4E130029091
:1034B00000200390ADF81000ADF814000C20ADF81A
:1034C0001200DFF8284C02A9204606F067F9012116
:1034D000204606F0BDF901214FF4800006F007F800
:1034E000DFF80C4C204606F0D5F9DFF8085C2846DA
:1034F00006F0D0F964200A90002011900320129069
:10350000002013900E904FF480600C90DFF8E80BD1
:103510000790002014900D900B904FF48030109085
:1035200000200F904FF02067069740200990DFF8A9
:103530004C6D06F16400089006A9204606F02EFAAC
:1035400000200F9006970990089606A9284606F0D5
:1035500025FA0021204606F048FA0021284606F008
:1035600044FA15B0F0BDF0B583B0DFF87C4B2046CF
:1035700006F056F8DFF8085D284606F051F8DFF847
:10358000046D304606F04CF80121084605F0AFFF07
:103590000121022005F0ABFF0121042005F0A7FF67
:1035A0000121082005F0A3FF0121102005F09FFF55
:1035B0000121802005F09BFF03208DF804000120ED
:1035C0008DF8060000208DF807008DF805004FF6F5
:1035D000FF77009700A9204606F07EF8009700A923
:1035E000284606F079F8009700A9DFF8A40C06F049
:1035F00073F800A9DFF89C0C06F06EF800A9DFF85C
:10360000080E06F069F800A9304606F065F80021BA
:10361000012005F06CFF0021022005F068FF002169
:10362000042005F064FF0021082005F060FF002160
:10363000102005F05CFF0021802005F058FF0121DB
:10364000832005F054FF01208DF8040000208DF840
:10365000050001208DF8060000208DF807000320EA
:10366000009000A9284606F037F803212846018378
:10367000C04601208DF8040000208DF80500ADF84B
:1036800006004FF40040009000A9204606F024F800
:103690004FF4004120464183C046042206212846BB
:1036A00006F068F804220721284606F063F8022095
:1036B0008DF8040001208DF805008DF8060000202B
:1036C0008DF807004020009000A9284606F004F875
:1036D0008020009000A9284605F0FEFF01218020EF
:1036E00005F005FF012000908DF806008DF804001C
:1036F00000208DF805008DF8070001213046018378
:10370000C04600A9304605F0E7FF0121802005F002
:10371000EEFE0220009000208DF8060001208DF8BA
:10372000040000208DF805008DF8070000A9304640
:1037300005F0D2FF022130460183C046286820F000
:10374000300040F010002860206820F0300040F089
:1037500010002060F7BD1FB5DFF8DC4CA0422FD170
:1037600001214FF4001005F0CDFE0121022005F0EB
:10377000BEFE01214FF4001005F0E5FE00214FF4DC
:10378000001005F0E0FE0020ADF804004BF6FF70DD
:10379000ADF806004FF48060ADF80A004FF48040A9
:1037A000ADF80C000A20ADF80800DFF8900C00908E
:1037B00000A9204606F0FDF90121204606F05CFA3A
:1037C0001FBDF8B5044640F6FF752E46DFF8C47DF0
:1037D0000221384606F01AFB002805D12846451E6E
:1037E0000028F5D10020F2BD214638468181C0462F
:1037F0000121384606F00AFB002804D13046461E57
:103800000028F5D1EEE738468089C046C0B2F2BD47
:10381000F8B504460D461646DFF8647A4FF4805139
:1038200038464183C04605F07F00FFF7CAFF03E03A
:1038300014F8010BFFF7C5FF3046461E80B2002882
:10384000F6D14FF480513846BDE8F44005F08EBF04
:10385000F8B504460D461646DFF8247A4FF4805139
:1038600038464183C04645F08000FFF7AAFF04E0D8
:103870000020FFF7A6FF04F8010B3046461E80B279
:103880000028F5D14FF480513846BDE8F44005F0EA
:103890006DBF30B587B0044601214FF4804005F07C
:1038A00031FE0121022005F022FE01208DF80400E6
:1038B00000208DF8060001208DF8070000208DF80B
:1038C00005004FF480500090DFF8B45900A9284655
:1038D00005F002FF4FF4805128464183C046002086
:1038E00040F6FF7100E0401C8842FCD34FF4805149
:1038F00028460183C04605220D21284605F03AFFDF
:1039000005220E21284605F035FF05220F21284605
:1039100005F030FF02208DF804000020ADF806000D
:103920008DF805004FF46040009000A9284605F08E
:10393000D3FE204606F002FA0020ADF80800ADF8EC
:103940000C000220ADF80E000120ADF810004FF47D
:103950000070ADF812001820ADF814000020ADF88A
:1039600016000720ADF818004FF48270ADF80A0079
:1039700002A9204606F011FA0321DFF8180CC9430A
:1039800001810121204606F02BFA07B030BD2DE958
:10399000F04192B001214FF4805005F0BEFD0121AD
:1039A000084605F0A4FD01214FF4800005F09FFDBD
:1039B000DFF8344705221146204605F0DBFE0522DC
:1039C0000721204605F0D6FE05220621204605F0F7
:1039D000D1FE05220421204605F0CCFE02208DF800
:1039E000040001208DF805000020ADF8060020201D
:1039F000009000A9204605F06FFE8020009000A9ED
:103A0000204605F069FE4020009000A9204605F000
:103A100063FE1020009000A9204605F05DFEDFF84F
:103A2000784B204606F08AF9DFF8705B002028808A
:103A300068600120288100206881E86007202882D2
:103A400000206880DFF8586B304605F023FFDFF870
:103A5000547B384605F01EFF4FF48060069000212D
:103A60000D9103210E9100210F910A910890DFF82A
:103A7000180D039008461090099007904FF40030FD
:103A80000C9008460B904FF0C068CDF8088040209D
:103A900005900846049002A9304605F07FFF0020FB
:103AA0000B90CDF80880059005F11400049002A950
:103AB000384605F073FF002068802946204606F04E
:103AC0006CF901220221204606F096F901221146E6
:103AD000204606F091F90121204606F081F90021E7
:103AE000304605F082FF0021384605F07EFF12B017
:103AF000BDE8F08170B598B00121084605F0F7FCEB
:103B000001214FF4804005F008FDDFF878470121DE
:103B100020460183C04601208DF8080000208DF862
:103B20000B0001208DF80A00019001A9204605F044
:103B3000D3FD00208DF808008DF80B0002200190C5
:103B4000DFF8A44501A9204605F0C6FD01210020AB
:103B500006F064F900208DF8100001208DF81200A5
:103B6000022003900C208DF8110003A806F06AF9DA
:103B700007208DF800000F208DF8010000208DF83F
:103B8000020001208DF8030000A806F0AAF9012127
:103B9000084605F0ACFC01214FF4003005F0D3FCE1
:103BA00000214FF4003005F0CEFC01214FF400302D
:103BB00005F0A8FC07220221204605F0DBFD0722C4
:103BC0000321204605F0D6FD00208DF80A000120D3
:103BD0008DF80B0002208DF80800042001900220CF
:103BE0008DF8090001A9204605F076FD02208DF828
:103BF00008000820019001A9204605F06DFD4FF452
:103C0000E130059000200690ADF81C00ADF82000D2
:103C10000C20ADF81E00DFF8744B05A9204605F016
:103C2000BDFD0121204605F013FE01214FF40010D7
:103C300005F05DFCDFF8584B204605F02BFEDFF861
:103C4000545B284605F026FE64200D900020149059
:103C5000032015900020169011904FF480600F9073
:103C6000DFF8340B0A900020179010900E904FF45C
:103C700080301390002012904FF00066099640208B
:103C80000C9000200B9009A9204605F087FE00202B
:103C9000129009960C90DFF8C00B0B9009A92846EA
:103CA00005F07CFE0F208DF8010000208DF8020049
:103CB00001208DF8030010208DF8000000A806F008
:103CC00010F911208DF8000000A806F00AF9012271
:103CD0001021284605F0BFFE01221021204605F0E4
:103CE000BAFE0021204605F080FE0021284605F09E
:103CF0007CFE18B070BD30B589B001214FF0805006
:103D000005F000FC012006F025F901214FF4802088
:103D100005F0EDFB0F2006F0CDFA0446102006F06A
:103D2000C9FA0546012005F0DFFB002005F0DCFBA9
:103D300021460F2006F0B1FA2946102006F0ADFA10
:103D400000214FF4802005F0D2FB012005F06AFB32
:103D5000412005F019FC0028FAD04FF4807005F0DE
:103D6000ADFB012005F0BDFB06F047F93F200690B2
:103D700040F2FF1007900020059005A806F0F4F827
:103D80000020029002A906F059F900208DF80700E2
:103D900001208DF804008DF805008DF8060001A9BA
:103DA000002006F0C4F94FF4800006F08DF84FF4BF
:103DB0008000039000208DF8100008208DF811007D
:103DC00001208DF8120003A806F03CF803208DF8BE
:103DD00000000D208DF8010000208DF80200012068
:103DE0008DF8030000A806F07CF8032006F013FA13
:103DF0004FF4804006F0C9FA4FF4800006F064F8F2
:103E000001214FF4804006F086FA012009B030BD50
:103E100070B586B00121032005F069FB01214FF444
:103E2000804005F07AFB00208DF810008DF813001B
:103E30000120039003A9AC4805F04EFC4FF4007438
:103E40000394DFF83C6403A9304605F045FC4FF4C9
:103E50008075039501208DF8130003A9304605F005
:103E60003BFC0021084605F0D9FF0921012005F09F
:103E7000D5FF0821012005F0D1FF00208DF80800B2
:103E800001208DF80A0001900C208DF8090001A88E
:103E900005F0D8FF019408208DF8090001A805F06D
:103EA000D1FF204606F010F817208DF800000F20F3
:103EB0008DF8010000208DF8020001208DF803002C
:103EC00000A806F00EF8019510208DF8090001A851
:103ED00005F0B8FF284605F0F7FF17208DF8000021
:103EE0000F208DF8010000208DF8020001208DF8D0
:103EF000030000A805F0F5FF06B070BD00B585B061
:103F00000121032005F0F3FA01214FF4804005F070
:103F100004FB00208DF810008DF81300082003909A
:103F200003A9D74805F0D8FB0321012005F076FF4F
:103F300000208DF8080001208DF80A00082001906B
:103F40000C208DF8090001A805F07CFF082005F081
:103F5000BBFF09208DF800000F208DF80100002024
:103F60008DF8020001208DF8030000A805F0B9FFCC
:103F700005B000BD30B58DB0044601214FF480700E
:103F800005F0CBFA00A805F0E1FB0A200090032021
:103F90008DF8040000208DF8070000A9524805F0B4
:103FA0009BFB06F025FA02A806F067FA4FF4803072
:103FB000039002A806F053FA06A806F046FADFF8C6
:103FC000145B06A9284606F020FA072301222146A1
:103FD000284606F063FA0121284606F0A2FA0121DC
:103FE000284606F050FA0DB030BD38B5DFF8E44A87
:103FF000204606F091FA4FF47A750221204606F029
:10400000A7FA002803D12846451E0128F5DA2046E4
:10401000BDE8324006F090BA80B50021DFF8B40A5E
:1040200006F031FA00214FF48070BDE8044005F03D
:1040300074BADFF87C0B00687047000038B50400E4
:1040400040D0012005F086FF002006F0FEF84FF476
:104050000055042006F07AF9012804D12846451EAF
:1040600080B20028F5D100EE104AB8EE400ADFED2C
:10407000860A80EE800AF0EE000A20EE200ADFEDCC
:10408000830A80EE800ABDEEC00A10EE100A401EC0
:1040900080B206F0D0F84FF4804006F076F94FF485
:1040A000800005F011FF012006F0CFF8DFF8000BCB
:1040B00001218160046021460FF24000BDE83440D8
:1040C000FEF719BDDFF8E80A00210160012005F0C4
:1040D00041FF0020BDE8324006F0B7B818ED00E01F
:1040E00000E400E010E000E00000024000140140A5
:1040F000A0640240286402400414014053657452D5
:104100005443203D2025640070B501240023DFF8CE
:10411000441A1A468A608A6812F00C0FFBD1DFF845
:10412000942A05460B2D45D8DFE805F01C4444448D
:1041300006171C2B30353A3F8D6845F080058D60A1
:10414000DFF8745A4FF4C0662E600D6825F0807554
:104150000D60DFF8685A15602DE02346DFF8605ADD
:10416000156028E08D688D60DFF84C5A4FF4C0660A
:104170002E600D6825F080750D60DFF8A05A15607F
:1041800019E00223DFF8985A156014E00323DFF8E2
:10419000945A15600FE00423DFF88C5A15600AE08A
:1041A0000523DFF8885A156005E00623DFF8805AFA
:1041B000156000E01C46002B4AD003EBC3030FF24E
:1041C000D8055B198D688D600D6825F080750D60D0
:1041D0000D6825F080650D609D781E8845EA86157E
:1041E000DE787608761E45EA06451E7945EA0665BC
:1041F0004D60DD881E7A360746EA8515DFF8C46A09
:1042000035600D6845F080750D600D68AD01FCD519
:104210005B7943F4C063DFF8A0592B608B688B6037
:104220008B688B60052804D1886840F09000886016
:1042300005E00A2803D1886840F4805088608868C7
:1042400040F002008860886800F00C000828FAD16D
:104250001068DFF8741A884207D2DFF8880A01680C
:1042600021F4404141F48041016010684FF47A71BB
:10427000B0FBF1F0FFF7C9F8204670BD007B0120CC
:1042800000040240001C024000007A440000004785
:1042900000080240000C0240200110040F0302013C
:1042A00003F00010060F01020103C00010080F0107
:1042B000020103C00010060F01020103F000100606
:1042C0000F01020103C80010040F02020103A8003D
:1042D00010020F030201030016E7002800E0401E51
:1042E000FDD1704730B583B00725534988426AD164
:1042F00001208DF804008DF805008DF806000020DF
:104300008DF8070040200090DFF8E04900A9204622
:1043100005F0E2F98020009000A9204605F0DCF9C4
:10432000402120464183C0460F20FFF7D6FF4021A1
:1043300020460183C0460F20FFF7CFFF2846451EC9
:1043400080B20028ECD18020009000A9204605F022
:10435000C3F9402120464183C0460520FFF7BDFF39
:10436000802120460183C0460520FFF7B6FF40218B
:1043700020460183C0460A20FFF7AFFF40212046B8
:104380004183C0460520FFF7A8FF802120464183D6
:10439000C0460520FFF7A1FF02208DF80400012090
:1043A0008DF805008DF8060000208DF807004020EC
:1043B000009000A9204605F08FF98020009000A908
:1043C000204605F089F937BD38B50024DFF82059BB
:1043D0000121286805F089FC286805F0BBFB2868E6
:1043E000FFF7B9F905E02868FFF77CFF2868FFF7B9
:1043F000B2F94FF40031286805F082FC002802D0A1
:10440000641C332CEFDB31BD0010024030B40022BD
:10441000838A008BDFF8D848656843EA004008408B
:10442000000255EA102060600840884200D1012255
:10443000104630BC7047000000540040801A06004F
:104440002DE9F84F04460D4616464FF420691F78B3
:10445000DFF89C884FF40031D8F8000005F050FCDC
:10446000002808D04846A0F101090028F2D1FFF742
:10447000ABFF00208CE0D8F8000001884FF6FF5217
:10448000114001800121D8F8000005F001FC4FF433
:10449000007AD1460020C8F80400D8F800B0DFF850
:1044A00054185846FFF7B2FF002805D14846A0F13E
:1044B00001090028F1D163E0D14600222146584687
:1044C00005F0FEFB0020C8F80400D8F80040DFF833
:1044D00028182046FFF79AFF002805D14846A0F18A
:1044E00001090028F1D14BE03146C9B220460182D2
:1044F000C046D1460020C8F80400D8F80040DFF8D4
:10450000FC172046FFF782FF002805D14846A0F19E
:1045100001090028F1D133E0012F15D12978204677
:104520000182C046D1460020C8F80400DFF8D01749
:10453000D8F80000FFF76AFF002823D14846A0F111
:1045400001090028F2D11BE03846471EC0B20028FE
:1045500018D015F8011BD8F800000182C046D146DA
:104560000020C8F80400DFF89817D8F80000FFF71B
:104570004DFF0028E8D14846A0F101090028F2D1FA
:10458000002005E00121D8F8000005F08DFB012096
:10459000BDE8F28F0038004000300140A8890120BA
:1045A00088640240106402402DE9F54F81B00D4649
:1045B0001E464FF420683778DFF834474FF4003157
:1045C000206805F09DFB002808D04046A0F10108B6
:1045D0000028F3D1FFF7F8FE0020D3E0206801881F
:1045E0004FF6FF52114001800121206805F050FB79
:1045F0004FF40079C84600206060DFF8F8A6D4F8D0
:1046000000B051465846FFF701FF002805D140464B
:10461000A0F101080028F2D191E000229DF80410D9
:10462000584605F04DFBC84600206060D4F800B045
:10463000DFF8C4165846FFF7E9FE002805D14046CA
:10464000A0F101080028F1D179E0BDF80810C9B245
:1046500058460182C046C846DFF8A816206805F013
:104660004FFB002805D14046A0F101080028F3D1F6
:1046700065E00121206805F00BFBC8460020606062
:10468000D4F800B051465846FFF7C0FE002805D1C7
:104690004046A0F101080028F2D150E001229DF827
:1046A0000410584605F00CFB022FC84639DADFF833
:1046B0005816206805F024FB002805D14046A0F1DB
:1046C00001080028F3D13AE00021206805F001FB41
:1046D0002068018B012105F0E7FAC846DFF82C16A7
:1046E000206805F00DFB002805D14046A0F1010827
:1046F0000028F3D123E02068008AC0B22870307807
:10470000401E3070C84620680188890505D540469E
:10471000A0F101080028F6D111E0012105F0D9FA35
:104720002BE000206060DFF8E8152068FFF76EFEE0
:10473000002806D14046A0F101080028F3D100204E
:1047400020E0012616E0012F0CD1012E0AD100260F
:104750003146206805F0BDFA2068818A018B01216D
:1047600005F0A2FA2068818A490603D5008A05F877
:10477000010B7F1EFFB2002FE5D10121206805F05B
:10478000A8FA0120BDE8FE8F0C3001400044004033
:10479000A06002408860024004440040DFF87405D5
:1047A0000168082933D1DFF8AC130A6842F080723F
:1047B0000A604268B2F1806F03D10A6842F08062F9
:1047C0000A600A689201FCD58A6842F002028A6097
:1047D0008A6802F00C02082AFAD14268B2F1806FAE
:1047E00002D10A681201FCD5DFF8C8130968DFF8A6
:1047F000D824914207D2DFF8EC140A6822F4404230
:1048000042F480420A6000210160416070474168C3
:10481000B1F1806F0AD1DFF83C130A6842F0806280
:104820000A600A681201FCD5002141607047DFF878
:10483000E804016841F080510160DFF8A8040168D4
:104840008908890041F001010160DFF8D0040FF20E
:1048500025014160704700000C710120DFF8C4049D
:10486000016821F00401016030BF016841F00401DA
:104870000160704738B5DFF8A844208840F0040094
:104880002080FEF7B2F8807A012803D1012005F0DC
:1048900064FB02E0002005F060FBDFF88854802113
:1048A000DFF8840405F0B2FA002818D172B6A948DE
:1048B000DFF86014826802F00C020A60006800F001
:1048C00080604860286840F00400286030BF62B60D
:1048D000286820F004002860FFF760FF0CE0608883
:1048E00040F004006080286820F00400286030BF99
:1048F000286840F004002860608840F00400608070
:1049000031BD0000DFF8140440680047DFF81C14D4
:10491000401E052812D8DFE800F00306090C110F2D
:10492000DFF8C8130AE0DFF8081407E0DFF8041422
:1049300004E0DFF8041401E0DFF8001408467047D3
:1049400010B50C46FFF7E2FF214689B2BDE81040E2
:1049500004F00CBF10B50C46FFF7D8FF214689B212
:10496000BDE8104004F004BFE0B500238DF8083026
:1049700001238DF80A30002A03D10C228DF809207A
:1049800002E008228DF80920042840D8DFE800F072
:104990000316222B2B000820019009208DF800001F
:1049A0000F208DF8010000208DF80200012924D18C
:1049B00018468DF803008DF80A0022E01846019091
:1049C00010208DF8090006208DF800000E208DF8CB
:1049D0000100E8E70220019007208DF800000F2079
:1049E0008DF80100DFE74FF40070019017208DF87B
:1049F00000000F208DF80100D5E78DF803008DF839
:104A00000A0001A805F01EFA00A805F06AFA07BD21
:104A10000821B64804F0A3BE10B5044601214FF4A6
:104A2000802004F064FD2146102005F036FC0021B2
:104A30004FF48020BDE8104004F059BD10B50121AD
:104A40004FF4802004F053FD102005F033FC0446A1
:104A500000214FF4802004F04AFD7B2004F094FDF7
:104A6000002802D099A0FEF746F87A2004F08CFDC9
:104A7000002802D096A0FEF73EF8792004F084FDCD
:104A8000002802D093A0FEF736F87C2004F07CFDCD
:104A9000002802D090A0FEF72EF87D2004F074FDCF
:104AA000002802D08DA0FEF726F87E2004F06CFDD1
:104AB000002802D08AA0FEF71EF87F2004F064FDD3
:104AC000002802D088A0FEF716F804F06FFD2046FB
:104AD000C0B210BD002001403EB50C461546042270
:104AE000014602A800F069FF0422214601A800F057
:104AF00064FF0422294600A800F05FFF02A90020FD
:104B000005F09CFA01A9002005F011FB05F00AFB55
:104B100004468B4A002300981946101A63EB0101E2
:104B2000490241EAD051400200F0D0FE0090844298
:104B300005D2011B4FF0004005F0C9FB37BDA04274
:104B400007D2C4F50070009909184FF0004005F035
:104B5000BEFB37BD003802402DE9704384B00446E7
:104B60000D46164602A9002005F0B7FA01A900205B
:104B700005F02DFB05F0D6FA0090714AA2FB0089E2
:104B80004FEA582848EAC958A2EB080000900422CE
:104B900002A9204600F011FF042201A9284600F0D6
:104BA0000CFF042200A9304600F007FFBDE87F8318
:104BB000D88C012050A00020003C024000127A0056
:104BC0008096980070B48C1E012C01DA0C34401EC3
:104BD0003C216425B0FBF5F5C5EB90054FF4C87694
:104BE000B0FBF6F6751940F26F1674430C26B4FB51
:104BF000F6F46419121940F26D1404FB0020514AB6
:104C0000101800EB400203EBC200039A01FB0020E6
:104C1000049A01FB002070BC704700000024F400DF
:104C200000366E010048E801005A620280F0FA0284
:104C300000BD01051CB50C46016801914168009159
:104C40008368C2680169491C406900F26C70FFF713
:104C5000B9FF2060002016BD10B58EB03A4800683C
:104C6000C405E40D01A9002005F037FA00A90020D1
:104C700005F0ADFA9DF8040006909DF8050005903A
:104C80009DF8060004909DF80100401E08909DF8D4
:104C9000020007909DF803006430099002A904A85F
:104CA000FFF7C8FF4FF47A7010FB04F0400AC0F51C
:104CB0007A700390029A4FF47A73C117E3FB0201F2
:104CC0000EB010BD8438024001879303504F52004C
:104CD00050494E00424F5200534654004957440039
:104CE00057574400007000404C50570000040240E9
:104CF00080A0002001000300820007008000070060
:104D000084000700040000100200001040000010A2
:104D100002000300A08D012040380240D88C012001
:104D20001800024010ED00E0003001400000024099
:104D300000080240000C024000100240001C02402B
:104D400000CA9A3B7505F5FF2828004050600260B4
:104D50004160086070470A68F8E748600160704782
:104D600001684068F9E7F8B50600DFF8705901D529
:104D70002846F2BD2C460020A96900E0096805F12B
:104D80001802914204D00C46A2689642F6D1012046
:104D9000002840D1286AD0F88070182005F0E0FB88
:104DA0000446A660002F05D0B74203D2B6FBF7F049
:104DB000784300E03046E060002F02D0B74200D2D6
:104DC0003E46266100202075DFF814693078401CCB
:104DD00030707078F021084202D0992001F05EF91D
:104DE00001F0C9F97078401C707005F11801204677
:104DF000FFF7B1FF7078F021084202D0992001F04E
:104E00004DF97078401E7070C0B2002801D101F0D9
:104E1000ACF901F0DAFB2046F2BD38B5044694F94E
:104E20001400002829D1DFF8B8582878401C2870D1
:104E30006878F021084202D0992001F02FF901F0A2
:104E40009AF96878401C68702046FFF789FF204671
:104E500005F09EFB6878F021084202D0992001F00D
:104E60001DF96878401E6870C0B2002801D101F0B9
:104E70007CF9BDE8314001F0A8BB31BDF8B504466E
:104E800008466FF00045FFF76EFF064694F90500EF
:104E900094F90410814214D1C01C800005F060FB1D
:104EA000074694F90500012807DB8200216838468F
:104EB00000F083FD206805F06BFB27606079C01C63
:104EC000607194F90400411C2171216841F820604F
:104ED000DFF80808864202D0307D401C3075002083
:104EE00008E0216851F820108A68954201DB1546D8
:104EF000A160401C94F904108842F2DBF1BDF8B5C2
:104F000004466FF00046DFF8D427154610464FF0F0
:104F1000FF33002704E0664501DB664675467F1CCB
:104F200094F904C067450DDAD4F800C05CF827E0B6
:104F3000DEF808C0002BEED58C45ECD170463B4620
:104F40005BB2ECE7002B11D4BCF1010F0EDB06E0E5
:104F5000216801EB8306766841F823605B1C94F9B5
:104F600004104E1EB342F3DB491E2171904204D05F
:104F7000017D491E0175FFF750FFA560F1BD10B41A
:104F8000C26A836B406C9C68002C02D56FF00043B2
:104F900000E01B698468002C02D56FF0004000E03F
:104FA0000069984200DD1846D2685143884201DB0F
:104FB000012000E0002010BC704738B5DFF81C1756
:104FC0000A6AD36E012490F90850AC402343D3669B
:104FD00001F6A451FFF7BFFE012032BD10B5DFF886
:104FE000FC16096ACA6E012390F90840A3409A434F
:104FF000CA66FFF7B5FE012010BD012070472DE9FC
:10500000FC4104460D4616461F4604F12400FFF7F6
:1050100035FF07EB470004EB8008314608F130000C
:10502000FFF72CFF019598F9340000903B46627A17
:1050300094F908100FF2F460FDF75DFDBDE8F3810F
:105040002DE9FC4104460D4616461F4604F1240096
:10505000FFF755FF07EB470004EB8008314608F1E6
:105060003000FFF74CFF019598F9340000903B4663
:10507000627A94F908100FF2C860FDF73CFDBDE8B4
:10508000F381C16A8A68012A09DB0969012906DA04
:10509000006D002801D500207047022070470020D5
:1050A000704701EB410200EB8201896B8A68012A9B
:1050B00009DB0969012906DA006D002801D5002005
:1050C00070470220704700207047002900D5D8E7BC
:1050D000E7E7012900DA012113460A468FE7012993
:1050E00000DA012113460A46AAE7DFF8F805C06A8C
:1050F000417A481E8041C00F704713464FF0FF327F
:1051000011467CE713464FF0FF32114698E780B511
:10511000DFF8D0050068417A002902D1806F40682D
:105120008047012002BD80B5FFF758FFDFF8B405C6
:105130000068417A002902D1806F80688047012091
:1051400002BDB1F57A7F01DC4FF47A7113460A464D
:105150004FF4FA7153E7B1F57A7F01DC4FF47A71BD
:1051600013460A464FF4FA716AE710B5044600295F
:1051700022D5E06A816801291CDB0069012819DA5F
:1051800002212046FFF7FBFE002813D194F95400BA
:1051900010F1010F04D1002084F85400012010BD4B
:1051A000002807D1012060774FF0FF3084F85400C9
:1051B000022010BD002010BDBDE8104071E74FF087
:1051C000FF3280F85420F8E6DFF81025126AD2F892
:1051D0008020A03252420265EFE600290AD5C06A5B
:1051E0008168012904DB0069012801DA0220704787
:1051F0000020704755E7B52900DAB42113460A4666
:105200003C21FCE6B52900DAB42113460A463C21CC
:1052100016E710B50446002927D5E06A8168012900
:1052200021DB006901281EDA03212046FFF7A7FED3
:10523000002818D194F95400014611F1010F04D14E
:10524000002084F85400012010BD002803D1012063
:1052500084F8540010BD012905D14FF0FF3084F8C7
:105260005400022010BD002010BDBDE8104018E71A
:105270004FF0FF3280F85420DFF86024126AD2F831
:105280008020B4325242026597E6DFF85024126A59
:10529000D2F880204632524202658EE6DFF83C2486
:1052A000126AD2F8802046325242026585E61346E1
:1052B0003C221146A3E613463C221146C0E60029D3
:1052C00018D5C16A8A68012A14DB0969012911DA33
:1052D00090F85410491C80F8541049B2002901D1AB
:1052E00001207047012905D14FF0FF3180F854109B
:1052F000022070470020704713464FF0FF321146DE
:105300007DE613464FF0FF32114699E680B5FFF770
:1053100054FEFDF76AFB00210175012002BD80B536
:10532000FFF75CFEFDF761FB00210175012002BD66
:10533000F8B50C46DFF8AC1351F82050287205F18F
:1053400054060FF21041B1621A2800F25781DFE8CB
:1053500010F01B00300042006B00570080008F00EF
:105360009D00D500AB00C700E300F100FD0008017F
:1053700013011F012A014001400140014001400189
:105380004001B9004B013501D448016A072281F878
:10539000842005F1080106224A760A228A7600F660
:1053A000AC50486040F2DC5088600FF2C430B0620C
:1053B00024E1CA48016A843103224A7005F10801D8
:1053C00006224A760A228A7600F59850883048608C
:1053D0006420886012E1C148016A843100228A7029
:1053E00005F108010C224A7610228A7600F5A050B9
:1053F0000C304860104688600FF2C830B062FDE0A3
:10540000B648016A843100220A7105F108010722B9
:105410004A760B228A7600F5A050486010468860D4
:105420000FF2A030B062E9E0AC48016A843100229A
:10543000CA7005F1080106224A760A228A7600F52A
:10544000A0501C304860104688600FF27830B0627F
:10545000D4E005F10801062048760A208876A248A3
:1054600048604FF4FA7088600FF27430B062C5E0A3
:1054700005F1080114204876182088769B4848607A
:10548000182088600FF2E430B062B7E005F108013F
:105490000320487607208876954848600720886072
:1054A0000FF29030B062A9E005F108010A204876B9
:1054B0000E2088768F4848600E2088600FF23C30BE
:1054C000B0629BE005F108010C2048761020887638
:1054D00089484860102088600FF23C30B0628DE04F
:1054E00005F1080102204876062088768348486046
:1054F000062088600FF25830B0627FE005F10801A5
:1055000005204876092088767D4848600920886013
:105510000FF29420B06271E005F108010620487690
:105520000A208876774848600A2088600FF25C205D
:10553000B06263E005F10801012048760520887615
:105540007148486040F28660886057E005F10801C4
:1055500001204876052088766C48486005208860E0
:105560004CE005F108010C20487610208876684848
:1055700048601020886041E005F10801112048765C
:10558000152088766348486041F66630886035E0CB
:1055900005F1080111204876152088765E4848609C
:1055A000152088602AE005F10801042048760820CB
:1055B00088765A484860082088601FE005F1080195
:1055C0002420487605208876554848600520886064
:1055D00014E005F10801012048760520887651483D
:1055E00048600520886009E005F10801062048763A
:1055F0000A2088764C4848600A20886005F1080136
:1056000000200875487588750876C860086148707C
:1056100005F12807B8624FF0FF3085F8540070801C
:105620000622002105F1580000F0CDF900210B46BB
:105630000DE001EB410205EB820282F83430343296
:105640005370506005EB81001A468264491C234860
:105650000229EEDB194685F82810797078607462AB
:10566000F1BD10B51D4CFDF7BDFE206200201D4AA6
:1056700005E004EBC011243142F82010401C1B2827
:10568000F7DB4FF0FF30A060E06000202061FDF705
:10569000ACF990F80E02002803D106F024FA07F0C6
:1056A00048F907F037FFFBF773FF08F073FCFBF7CF
:1056B000B3FFFCF717FBFDF7B3F809F03BF809F06F
:1056C0003AF909F049F909F031F909F04AF909F014
:1056D000C9FABDE8104009F049B90000086000208F
:1056E000849F0020BC6001203074002024760020BC
:1056F00068760020487600205876002070760020DA
:105700003C7600207876002084760020147D0020EE
:105710001C7D00202C7D0020949800200C7D002012
:10572000AC980020F4730020FC7300204144202535
:10573000642025642025642025642C202564000035
:10574000524D2025642025642025642025642025D1
:1057500064000000FB4F0008BB4F0008FB4F00082F
:10576000DD4F0008D3500008DF500008CB50000880
:10577000EB500008BB4F0008EB500008DD4F00085D
:10578000D3500008DF500008CB5000080F5100082C
:10579000BB4F0008FB4F000827510008FB500008D2
:1057A00005510008CB500008FB4F0008BF5100080E
:1057B000FB4F0008DD4F0008435100085751000817
:1057C0006B510008FB4F0008C9510008FB4F00084F
:1057D000DD4F0008D3500008DF500008DB510008FF
:1057E000FB4F000871520008FB4F0008DD4F000816
:1057F000F75100080552000813520008FB4F00083B
:105800008B520008FB4F0008DD4F0008D350000802
:10581000DF500008CB500008FB4F00089D520008E5
:10582000FB4F0008DD4F0008AF520008B7520008D8
:10583000BF520008FB4F00080D530008FB4F000843
:105840001F530008F952000803530008CB5000080A
:10585000FB4F0008BB4F0008FB4F0008DD4F00085E
:10586000D3500008DF500008CB500008FB4F000861
:10587000BB4F0008FB4F0008DD4F0008F95200083D
:1058800003530008CB50000813F0004C03D55B42D3
:10589000524263F100039CEA210C00F0178010B51E
:1058A000644603D34942404261F1000100F00EF822
:1058B000640004D34942404261F10001244203D50F
:1058C0005B42524263F1000310BD00001B4213D142
:1058D000094236D12AB18446B0FBF2F002FB10C275
:1058E000704709F0E5B9FCD30022002370470B0094
:1058F0000200002100207047904271EB030CF6D3A8
:1059000070B5B1FA81F4B3FA83F52C1BA340C4F14E
:10591000200532FA05F63343A2405FF00046E64028
:1059200002E05B085FEA3202841A71EB030524BFD0
:10593000204629467641F4D302000B0030000021B6
:1059400070BD012ACFD970B5140C20D0B1FA81F402
:10595000B2FA82F5C4F120046419B4F12006D6D35A
:10596000B2405FF00044F440002502E052085FEAD4
:105970003303C61A71EB020E24BF304671466441F0
:105980006D41F3D302000B002000290070BD0C46CE
:10599000B1FBF2F102FB11452D0445EA1045B5FBC0
:1059A000F2F402FB145580B240EA0545B5FBF2F073
:1059B00002FB105240EA044070BD10B5044603F0EB
:1059C00097FB204610BD10B5044610460A46014616
:1059D000204609F06FF9204610BD09F02EBA10B428
:1059E00050F8041B81B102681218001D50F8043BE6
:1059F000DC0744BFA9F10104E31852F8044B43F853
:105A0000044B091FF9D1EBE710BC70472DE9F84FA3
:105A100082460E4617460A9DADB2A846A8F101007F
:105A200007FB10647008B8F1020F0DDBFE280DDAD9
:105A3000DDF830904FF4807200214846FFF7C3FF35
:105A400000220B980D992BE0FF28F1DD002044E0A7
:105A50005AF822C030F813E0F44509D102EBD27CA9
:105A60004FEA6C0C1CF809E04EEA031E0CF809E042
:105A70000AEB820CDCF804C030F813E0F4450BD1DB
:105A800002EBD27C4FEA6C0C1CF809E003F00F0B20
:105A90004BEA0E0E0CF809E05B1C8B42D8DB921C23
:105AA000A24201DA0023F8E704EBD4704010441C52
:105AB000FF21B8F1020F0DDBFE2200F80920681E5D
:105AC00007FB1060C01B04F80900601C00F80910F7
:105AD000441C01E000F809102046BDE8F28F2DE9D2
